{
  "contractName": "StudentManagement",
  "abi": [
    {
      "anonymous": false,
      "inputs": [
        {
          "indexed": false,
          "internalType": "uint256",
          "name": "id",
          "type": "uint256"
        },
        {
          "indexed": false,
          "internalType": "string",
          "name": "name",
          "type": "string"
        },
        {
          "indexed": false,
          "internalType": "uint256",
          "name": "age",
          "type": "uint256"
        }
      ],
      "name": "StudentAdded",
      "type": "event"
    },
    {
      "inputs": [],
      "name": "studentCount",
      "outputs": [
        {
          "internalType": "uint256",
          "name": "",
          "type": "uint256"
        }
      ],
      "stateMutability": "view",
      "type": "function",
      "constant": true
    },
    {
      "inputs": [
        {
          "internalType": "uint256",
          "name": "",
          "type": "uint256"
        }
      ],
      "name": "students",
      "outputs": [
        {
          "internalType": "uint256",
          "name": "id",
          "type": "uint256"
        },
        {
          "internalType": "string",
          "name": "name",
          "type": "string"
        },
        {
          "internalType": "uint256",
          "name": "age",
          "type": "uint256"
        }
      ],
      "stateMutability": "view",
      "type": "function",
      "constant": true
    },
    {
      "inputs": [
        {
          "internalType": "string",
          "name": "_name",
          "type": "string"
        },
        {
          "internalType": "uint256",
          "name": "_age",
          "type": "uint256"
        }
      ],
      "name": "addStudent",
      "outputs": [],
      "stateMutability": "nonpayable",
      "type": "function"
    },
    {
      "inputs": [
        {
          "internalType": "uint256",
          "name": "_id",
          "type": "uint256"
        }
      ],
      "name": "getStudent",
      "outputs": [
        {
          "components": [
            {
              "internalType": "uint256",
              "name": "id",
              "type": "uint256"
            },
            {
              "internalType": "string",
              "name": "name",
              "type": "string"
            },
            {
              "internalType": "uint256",
              "name": "age",
              "type": "uint256"
            }
          ],
          "internalType": "struct StudentManagement.Student",
          "name": "",
          "type": "tuple"
        }
      ],
      "stateMutability": "view",
      "type": "function",
      "constant": true
    }
  ],
  "bytecode": "0x608060405234801561001057600080fd5b5061088e806100206000396000f3fe608060405234801561001057600080fd5b506004361061004c5760003560e01c806306ead22e146100515780630e5eeef714610083578063642f91631461009f578063e581f9ee146100cf575b600080fd5b61006b600480360381019061006691906104ca565b6100ed565b60405161007a93929190610610565b60405180910390f35b61009d60048036038101906100989190610476565b61019f565b005b6100b960048036038101906100b491906104ca565b61025d565b6040516100c691906105d3565b60405180910390f35b6100d761032f565b6040516100e491906105f5565b60405180910390f35b600060205280600052604060002060009150905080600001549080600101805461011690610728565b80601f016020809104026020016040519081016040528092919081815260200182805461014290610728565b801561018f5780601f106101645761010080835404028352916020019161018f565b820191906000526020600020905b81548152906001019060200180831161017257829003601f168201915b5050505050908060020154905083565b600160008154809291906101b29061075a565b91905055506040518060600160405280600154815260200183815260200182815250600080600154815260200190815260200160002060008201518160000155602082015181600101908051906020019061020e929190610335565b50604082015181600201559050507ffafb7311fc57ca8a55073f63725e888b4250c799d77ae873970d65ac08c5917a600154838360405161025193929190610610565b60405180910390a15050565b6102656103bb565b6000808381526020019081526020016000206040518060600160405290816000820154815260200160018201805461029c90610728565b80601f01602080910402602001604051908101604052809291908181526020018280546102c890610728565b80156103155780601f106102ea57610100808354040283529160200191610315565b820191906000526020600020905b8154815290600101906020018083116102f857829003601f168201915b505050505081526020016002820154815250509050919050565b60015481565b82805461034190610728565b90600052602060002090601f01602090048101928261036357600085556103aa565b82601f1061037c57805160ff19168380011785556103aa565b828001600101855582156103aa579182015b828111156103a957825182559160200191906001019061038e565b5b5090506103b791906103dc565b5090565b60405180606001604052806000815260200160608152602001600081525090565b5b808211156103f55760008160009055506001016103dd565b5090565b600061040c6104078461067f565b61064e565b90508281526020810184848401111561042457600080fd5b61042f8482856106e6565b509392505050565b600082601f83011261044857600080fd5b81356104588482602086016103f9565b91505092915050565b60008135905061047081610841565b92915050565b6000806040838503121561048957600080fd5b600083013567ffffffffffffffff8111156104a357600080fd5b6104af85828601610437565b92505060206104c085828601610461565b9150509250929050565b6000602082840312156104dc57600080fd5b60006104ea84828501610461565b91505092915050565b60006104fe826106af565b61050881856106ba565b93506105188185602086016106f5565b61052181610830565b840191505092915050565b6000610537826106af565b61054181856106cb565b93506105518185602086016106f5565b61055a81610830565b840191505092915050565b600060608301600083015161057d60008601826105b5565b506020830151848203602086015261059582826104f3565b91505060408301516105aa60408601826105b5565b508091505092915050565b6105be816106dc565b82525050565b6105cd816106dc565b82525050565b600060208201905081810360008301526105ed8184610565565b905092915050565b600060208201905061060a60008301846105c4565b92915050565b600060608201905061062560008301866105c4565b8181036020830152610637818561052c565b905061064660408301846105c4565b949350505050565b6000604051905081810181811067ffffffffffffffff8211171561067557610674610801565b5b8060405250919050565b600067ffffffffffffffff82111561069a57610699610801565b5b601f19601f8301169050602081019050919050565b600081519050919050565b600082825260208201905092915050565b600082825260208201905092915050565b6000819050919050565b82818337600083830152505050565b60005b838110156107135780820151818401526020810190506106f8565b83811115610722576000848401525b50505050565b6000600282049050600182168061074057607f821691505b60208210811415610754576107536107d2565b5b50919050565b6000610765826106dc565b91507fffffffffffffffffffffffffffffffffffffffffffffffffffffffffffffffff821415610798576107976107a3565b5b600182019050919050565b7f4e487b7100000000000000000000000000000000000000000000000000000000600052601160045260246000fd5b7f4e487b7100000000000000000000000000000000000000000000000000000000600052602260045260246000fd5b7f4e487b7100000000000000000000000000000000000000000000000000000000600052604160045260246000fd5b6000601f19601f8301169050919050565b61084a816106dc565b811461085557600080fd5b5056fea264697066735822122020483127c2fe66be66906e522a7099390a009b47b067ba5878315484517d8a9d64736f6c63430008000033",
  "immutableReferences": {},
  "source": "// contracts/StudentManagement.sol\r\n// SPDX-License-Identifier: MIT\r\npragma solidity ^0.8.0;\r\n//Hp ng thng minh qun l thng tin sinh vin\r\ncontract StudentManagement{\r\n    struct Student {\r\n        uint id;\r\n        string name;\r\n        uint age;\r\n    }\r\n\r\n    mapping(uint => Student) public students;\r\n    uint public studentCount;\r\n\r\n    //S kin thm mt sinh vin mi\r\n    event StudentAdded(uint id, string name, uint age);\r\n\r\n    //Hm thm sinh vin mi\r\n    function addStudent(string memory _name, uint _age) public {\r\n        studentCount++;\r\n        students[studentCount] = Student(studentCount, _name, _age);\r\n        emit StudentAdded(studentCount, _name, _age);\r\n    }\r\n\r\n    //Hm ly ra thng tin sinh vin\r\n    function getStudent(uint _id) public view returns (Student memory) {\r\n        return students[_id];\r\n    }\r\n    \r\n}",
  "sourcePath": "D:\\student-management\\contracts\\StudentManagement.sol",
  "compiler": {
    "name": "solc",
    "version": "0.8.0+commit.c7dfd78e.Emscripten.clang"
  },
  "schemaVersion": "3.4.16",
  "updatedAt": "2024-07-26T08:10:01.243Z",
  "networkType": "ethereum",
  "devdoc": {
    "kind": "dev",
    "methods": {},
    "version": 1
  },
  "userdoc": {
    "kind": "user",
    "methods": {},
    "version": 1
  }
}